:100000000C942A000C943F000C943F000C943F0089
:100010000C943F000C943F000C943F000C943F0064
:100020000C943F000C943F000C943F000C943F0054
:100030000C943F000C943F000C943F000C943F0044
:100040000C943F000C943F000C943F000C943F0034
:100050000C943F0011241FBECFE5D8E0DEBFCDBF1A
:1000600010E0A0E6B0E0E4E0F5E002C005900D92FB
:10007000AC37B107D9F70E941C020C9480020C9493
:100080000000442319F04130C9F10895813091F006
:1000900028F08230D9F0833029F108952AB381E025
:1000A00090E002C0880F991F6A95E2F7809582233D
:1000B0008ABB089527B381E090E002C0880F991FA2
:1000C0006A95E2F78095822387BB089524B381E087
:1000D00090E002C0880F991F6A95E2F7809582230D
:1000E00084BB089521B381E090E002C0880F991F7E
:1000F0006A95E2F78095822381BB0895813089F06B
:1001000028F08230C9F0833011F108952AB381E0DC
:1001100090E002C0880F991F6A95E2F7822B8ABB94
:10012000089527B381E090E002C0880F991F6A9577
:10013000E2F7822B87BB089524B381E090E002C0F0
:10014000880F991F6A95E2F7822B84BB089521B32B
:1001500081E090E002C0880F991F6A95E2F7822B38
:1001600081BB0895442319F04130C9F108958130CD
:1001700091F028F08230D9F0833029F108952BB323
:1001800081E090E002C0880F991F6A95E2F78095A0
:1001900082238BBB089528B381E090E002C0880FD2
:1001A000991F6A95E2F78095822388BB089525B34D
:1001B00081E090E002C0880F991F6A95E2F7809570
:1001C000822385BB089522B381E090E002C0880FAE
:1001D000991F6A95E2F78095822382BB089581304A
:1001E00089F028F08230C9F0833011F108952BB3E3
:1001F00081E090E002C0880F991F6A95E2F7822B98
:100200008BBB089528B381E090E002C0880F991F4E
:100210006A95E2F7822B88BB089525B381E090E0D0
:1002200002C0880F991F6A95E2F7822B85BB08955B
:1002300022B381E090E002C0880F991F6A95E2F72F
:10024000822B82BB0895CF93C82F40E061E081E00C
:100250000E94B20040E062E081E00E94B20040E013
:1002600063E081E00E94B2008BB39C2F907F8F707F
:10027000892B8BBB41E063E081E00E94B2008FE9F3
:100280009FE00197F1F700C0000040E063E081E0EB
:100290000E94B20020E1C29FC00111249BB39F7055
:1002A000892B8BBB41E063E081E00E94B2008FE9C3
:1002B0009FE00197F1F700C0000040E063E081E0BB
:1002C0000E94B2008FE19EE40197F1F700C00000A8
:1002D000CF91089541E061E081E00E94410041E05A
:1002E00062E081E00E94410041E063E081E00E9421
:1002F000410041E064E080E00E94410041E065E0AF
:1003000080E00E94410041E066E080E00E94410000
:1003100041E067E080E00E9441002FEF81EE94E031
:10032000215080409040E1F700C0000082E00E9430
:10033000230183E30E94230182E30E94230188E2D8
:100340000E9423018CE00E94230181E00E9423018E
:1003500086E00E9423010895CF93C82F41E061E019
:1003600081E00E94B20040E062E081E00E94B200C1
:1003700040E063E081E00E94B2008BB39C2F907F4D
:100380008F70892B8BBB41E063E081E00E94B2005B
:100390008FE99FE00197F1F700C0000040E063E0C3
:1003A00081E00E94B20020E1C29FC00111249BB3F2
:1003B0009F70892B8BBB41E063E081E00E94B2001B
:1003C0008FE99FE00197F1F700C0000040E063E093
:1003D00081E00E94B2008FE19EE40197F1F700C036
:1003E0000000CF91089581E00E9423010895CF93EA
:1003F000DF93EC0109C08FE99FE00197F1F700C09E
:10040000000089910E94AC0188818111F4CFDF91B5
:10041000CF91089541E062E082E00E94410008959A
:1004200041E062E082E00E94B200089540E062E0B4
:1004300082E00E94B2000895CF93DF931F92CDB760
:10044000DEB719820E94610280E00E947A020E9457
:100450000A020E946A01CE0101960E9474028981FB
:10046000813479F480E690E00E94F7010E94160240
:100470000E94F3018FE39CE90197F1F700C00000AF
:10048000EACF823479F40E9410020E94F30188E6D8
:1004900090E00E94F7018FE39CE90197F1F700C01B
:1004A0000000D9CF0E9416020E94F3018FE690E06F
:1004B0000E94F7018FE39CE90197F1F700C000006B
:1004C000CACF87B38F7D87BB87B3806487BB87B371
:1004D0008F7787BB87B38F7E87BB8DB18F7E8DB9BA
:1004E0008DB180648DB90895779BFECF2FB1FC014B
:1004F00020830895811103C088B38F7E88BB08953F
:04050000F894FFCF9D
:100504004C4544204F4646004C4544204F4E00572E
:0C051400726F6E675F4F7074696F6E004D
:00000001FF
