S00E00004D61737465722E73726563AA
S11300000C942A000C943F000C943F000C943F0085
S11300100C943F000C943F000C943F000C943F0060
S11300200C943F000C943F000C943F000C943F0050
S11300300C943F000C943F000C943F000C943F0040
S11300400C943F000C943F000C943F000C943F0030
S11300500C943F0011241FBECFE5D8E0DEBFCDBF16
S113006010E0A0E6B0E0EEECF4E002C005900D92E2
S1130070A836B107D9F70E940A020C9465020C94C1
S11300800000442319F04130C9F10895813091F002
S113009028F08230D9F0833029F108952AB381E021
S11300A090E002C0880F991F6A95E2F78095822339
S11300B08ABB089527B381E090E002C0880F991F9E
S11300C06A95E2F78095822387BB089524B381E083
S11300D090E002C0880F991F6A95E2F78095822309
S11300E084BB089521B381E090E002C0880F991F7A
S11300F06A95E2F78095822381BB0895813089F067
S113010028F08230C9F0833011F108952AB381E0D8
S113011090E002C0880F991F6A95E2F7822B8ABB90
S1130120089527B381E090E002C0880F991F6A9573
S1130130E2F7822B87BB089524B381E090E002C0EC
S1130140880F991F6A95E2F7822B84BB089521B327
S113015081E090E002C0880F991F6A95E2F7822B34
S113016081BB0895442319F04130C9F108958130C9
S113017091F028F08230D9F0833029F108952BB31F
S113018081E090E002C0880F991F6A95E2F780959C
S113019082238BBB089528B381E090E002C0880FCE
S11301A0991F6A95E2F78095822388BB089525B349
S11301B081E090E002C0880F991F6A95E2F780956C
S11301C0822385BB089522B381E090E002C0880FAA
S11301D0991F6A95E2F78095822382BB0895813046
S11301E089F028F08230C9F0833011F108952BB3DF
S11301F081E090E002C0880F991F6A95E2F7822B94
S11302008BBB089528B381E090E002C0880F991F4A
S11302106A95E2F7822B88BB089525B381E090E0CC
S113022002C0880F991F6A95E2F7822B85BB089557
S113023022B381E090E002C0880F991F6A95E2F72B
S1130240822B82BB0895CF93C82F40E061E081E008
S11302500E94B20040E062E081E00E94B20040E00F
S113026063E081E00E94B2008BB39C2F907F8F707B
S1130270892B8BBB41E063E081E00E94B2008FE9EF
S11302809FE00197F1F700C0000040E063E081E0E7
S11302900E94B20020E1C29FC00111249BB39F7051
S11302A0892B8BBB41E063E081E00E94B2008FE9BF
S11302B09FE00197F1F700C0000040E063E081E0B7
S11302C00E94B2008FE19EE40197F1F700C00000A4
S11302D0CF91089541E061E081E00E94410041E056
S11302E062E081E00E94410041E063E081E00E941D
S11302F0410041E064E080E00E94410041E065E0AB
S113030080E00E94410041E066E080E00E944100FC
S113031041E067E080E00E9441002FEF81EE94E02D
S1130320215080409040E1F700C0000082E00E942C
S1130330230183E30E94230182E30E94230188E2D4
S11303400E9423018CE00E94230181E00E9423018A
S113035086E00E9423010895CF93C82F41E061E015
S113036081E00E94B20040E062E081E00E94B200BD
S113037040E063E081E00E94B2008BB39C2F907F49
S11303808F70892B8BBB41E063E081E00E94B20057
S11303908FE99FE00197F1F700C0000040E063E0BF
S11303A081E00E94B20020E1C29FC00111249BB3EE
S11303B09F70892B8BBB41E063E081E00E94B20017
S11303C08FE99FE00197F1F700C0000040E063E08F
S11303D081E00E94B2008FE19EE40197F1F700C032
S11303E00000CF91089581E00E9423010895CF93E6
S11303F0DF93EC0109C08FE99FE00197F1F700C09A
S1130400000089910E94AC0188818111F4CFDF91B1
S1130410CF9108950E9430020E946A010E945902FD
S113042080E690E00E94F7012FEF83E294EF2150E1
S113043080409040E1F700C000000E94F3010E9458
S11304406102C82F8823D9F30E94AC018FE39CE991
S11304500197F1F700C000008C2F0E945502EFCFE6
S113046087B3806287BB87B38F7B87BB87B3806882
S113047087BB87B3806187BB8DB18F778DB98DB111
S113048080618DB98DB180628DB98DB1877F8DB951
S11304908EB18E7F8EB98DB182608DB98DB1816040
S11304A08DB98DB180648DB908958FB9779BFECFD6
S11304B0089588E18AB986E880BD89E189B910BCCC
S11104C008955F9BFECF8CB10895F894FFCF92
S10B04CE57656C636F6D0000BB
S9030000FC
